{
  "_format": "hh-sol-artifact-1",
  "contractName": "healthrecord",
  "sourceName": "contracts/healthrecord.sol",
  "abi": [
    {
      "inputs": [
        {
          "internalType": "address",
          "name": "owner",
          "type": "address"
        },
        {
          "internalType": "string",
          "name": "_name",
          "type": "string"
        },
        {
          "internalType": "string",
          "name": "_age",
          "type": "string"
        },
        {
          "internalType": "string",
          "name": "_gender",
          "type": "string"
        },
        {
          "internalType": "string",
          "name": "_height",
          "type": "string"
        },
        {
          "internalType": "string",
          "name": "_weight",
          "type": "string"
        },
        {
          "internalType": "address",
          "name": "doctorAddress",
          "type": "address"
        },
        {
          "internalType": "string",
          "name": "_profileHash",
          "type": "string"
        }
      ],
      "stateMutability": "nonpayable",
      "type": "constructor"
    },
    {
      "inputs": [],
      "name": "getDetails",
      "outputs": [
        {
          "internalType": "string",
          "name": "",
          "type": "string"
        },
        {
          "internalType": "string",
          "name": "",
          "type": "string"
        },
        {
          "internalType": "string",
          "name": "",
          "type": "string"
        },
        {
          "internalType": "string",
          "name": "",
          "type": "string"
        },
        {
          "internalType": "string",
          "name": "",
          "type": "string"
        }
      ],
      "stateMutability": "view",
      "type": "function"
    },
    {
      "inputs": [],
      "name": "getNameandAddress",
      "outputs": [
        {
          "internalType": "string",
          "name": "",
          "type": "string"
        },
        {
          "internalType": "string",
          "name": "",
          "type": "string"
        },
        {
          "internalType": "address",
          "name": "",
          "type": "address"
        },
        {
          "internalType": "address",
          "name": "",
          "type": "address"
        }
      ],
      "stateMutability": "view",
      "type": "function"
    },
    {
      "inputs": [
        {
          "internalType": "uint256",
          "name": "index",
          "type": "uint256"
        }
      ],
      "name": "getPrescription",
      "outputs": [
        {
          "internalType": "string",
          "name": "",
          "type": "string"
        }
      ],
      "stateMutability": "view",
      "type": "function"
    },
    {
      "inputs": [],
      "name": "getPrescriptionLength",
      "outputs": [
        {
          "internalType": "uint256",
          "name": "",
          "type": "uint256"
        }
      ],
      "stateMutability": "view",
      "type": "function"
    },
    {
      "inputs": [
        {
          "internalType": "uint256",
          "name": "index",
          "type": "uint256"
        }
      ],
      "name": "getReport",
      "outputs": [
        {
          "internalType": "string",
          "name": "",
          "type": "string"
        }
      ],
      "stateMutability": "view",
      "type": "function"
    },
    {
      "inputs": [],
      "name": "getReportLength",
      "outputs": [
        {
          "internalType": "uint256",
          "name": "",
          "type": "uint256"
        }
      ],
      "stateMutability": "view",
      "type": "function"
    },
    {
      "inputs": [
        {
          "internalType": "address",
          "name": "sender",
          "type": "address"
        },
        {
          "internalType": "string",
          "name": "hash",
          "type": "string"
        }
      ],
      "name": "setPrescriptionHash",
      "outputs": [],
      "stateMutability": "nonpayable",
      "type": "function"
    },
    {
      "inputs": [
        {
          "internalType": "address",
          "name": "sender",
          "type": "address"
        },
        {
          "internalType": "string",
          "name": "hash",
          "type": "string"
        }
      ],
      "name": "setreportHash",
      "outputs": [],
      "stateMutability": "nonpayable",
      "type": "function"
    }
  ],
  "bytecode": "0x60806040523480156200001157600080fd5b5060405162001ef438038062001ef4833981810160405281019062000037919062000296565b87600360006101000a81548173ffffffffffffffffffffffffffffffffffffffff021916908373ffffffffffffffffffffffffffffffffffffffff1602179055508660059080519060200190620000909291906200015d565b508560069080519060200190620000a99291906200015d565b508460079080519060200190620000c29291906200015d565b508360089080519060200190620000db9291906200015d565b508260099080519060200190620000f49291906200015d565b5081600460006101000a81548173ffffffffffffffffffffffffffffffffffffffff021916908373ffffffffffffffffffffffffffffffffffffffff16021790555080600290805190602001906200014e9291906200015d565b5050505050505050506200056e565b8280546200016b90620004c0565b90600052602060002090601f0160209004810192826200018f5760008555620001db565b82601f10620001aa57805160ff1916838001178555620001db565b82800160010185558215620001db579182015b82811115620001da578251825591602001919060010190620001bd565b5b509050620001ea9190620001ee565b5090565b5b8082111562000209576000816000905550600101620001ef565b5090565b6000620002246200021e8462000423565b620003ef565b9050828152602081018484840111156200023d57600080fd5b6200024a8482856200048a565b509392505050565b600081519050620002638162000554565b92915050565b600082601f8301126200027b57600080fd5b81516200028d8482602086016200020d565b91505092915050565b600080600080600080600080610100898b031215620002b457600080fd5b6000620002c48b828c0162000252565b985050602089015167ffffffffffffffff811115620002e257600080fd5b620002f08b828c0162000269565b975050604089015167ffffffffffffffff8111156200030e57600080fd5b6200031c8b828c0162000269565b965050606089015167ffffffffffffffff8111156200033a57600080fd5b620003488b828c0162000269565b955050608089015167ffffffffffffffff8111156200036657600080fd5b620003748b828c0162000269565b94505060a089015167ffffffffffffffff8111156200039257600080fd5b620003a08b828c0162000269565b93505060c0620003b38b828c0162000252565b92505060e089015167ffffffffffffffff811115620003d157600080fd5b620003df8b828c0162000269565b9150509295985092959890939650565b6000604051905081810181811067ffffffffffffffff8211171562000419576200041862000525565b5b8060405250919050565b600067ffffffffffffffff82111562000441576200044062000525565b5b601f19601f8301169050602081019050919050565b600062000463826200046a565b9050919050565b600073ffffffffffffffffffffffffffffffffffffffff82169050919050565b60005b83811015620004aa5780820151818401526020810190506200048d565b83811115620004ba576000848401525b50505050565b60006002820490506001821680620004d957607f821691505b60208210811415620004f057620004ef620004f6565b5b50919050565b7f4e487b7100000000000000000000000000000000000000000000000000000000600052602260045260246000fd5b7f4e487b7100000000000000000000000000000000000000000000000000000000600052604160045260246000fd5b6200055f8162000456565b81146200056b57600080fd5b50565b611976806200057e6000396000f3fe608060405234801561001057600080fd5b50600436106100885760003560e01c8063a45c26fa1161005b578063a45c26fa14610125578063b8fbfe4114610146578063cdbbd15914610164578063fbbf93a01461018257610088565b806332ddb7cc1461008d5780634e7f9b19146100a957806353a1c847146100d95780636f16af10146100f5575b600080fd5b6100a760048036038101906100a2919061134a565b6101a4565b005b6100c360048036038101906100be919061139e565b610274565b6040516100d091906115d0565b60405180910390f35b6100f360048036038101906100ee919061134a565b610561565b005b61010f600480360381019061010a919061139e565b610631565b60405161011c91906115d0565b60405180910390f35b61012d61091e565b60405161013d94939291906115f2565b60405180910390f35b61014e610a94565b60405161015b919061175b565b60405180910390f35b61016c610c71565b604051610179919061175b565b60405180910390f35b61018a610e4e565b60405161019b959493929190611645565b60405180910390f35b600460009054906101000a900473ffffffffffffffffffffffffffffffffffffffff1673ffffffffffffffffffffffffffffffffffffffff168273ffffffffffffffffffffffffffffffffffffffff1614610234576040517f08c379a000000000000000000000000000000000000000000000000000000000815260040161022b9061173b565b60405180910390fd5b60018190806001815401808255809150506001900390600052602060002001600090919091909150908051906020019061026f929190611215565b505050565b6060600360009054906101000a900473ffffffffffffffffffffffffffffffffffffffff1673ffffffffffffffffffffffffffffffffffffffff163373ffffffffffffffffffffffffffffffffffffffff16148061031f5750600460009054906101000a900473ffffffffffffffffffffffffffffffffffffffff1673ffffffffffffffffffffffffffffffffffffffff163373ffffffffffffffffffffffffffffffffffffffff16145b61035e576040517f08c379a0000000000000000000000000000000000000000000000000000000008152600401610355906116bb565b60405180910390fd5b600360009054906101000a900473ffffffffffffffffffffffffffffffffffffffff1673ffffffffffffffffffffffffffffffffffffffff163373ffffffffffffffffffffffffffffffffffffffff1614806104075750600460009054906101000a900473ffffffffffffffffffffffffffffffffffffffff1673ffffffffffffffffffffffffffffffffffffffff163373ffffffffffffffffffffffffffffffffffffffff16145b610446576040517f08c379a000000000000000000000000000000000000000000000000000000000815260040161043d906116fb565b60405180910390fd5b600180549050821061048d576040517f08c379a0000000000000000000000000000000000000000000000000000000008152600401610484906116db565b60405180910390fd5b600182815481106104c7577f4e487b7100000000000000000000000000000000000000000000000000000000600052603260045260246000fd5b9060005260206000200180546104dc90611871565b80601f016020809104026020016040519081016040528092919081815260200182805461050890611871565b80156105555780601f1061052a57610100808354040283529160200191610555565b820191906000526020600020905b81548152906001019060200180831161053857829003601f168201915b50505050509050919050565b600460009054906101000a900473ffffffffffffffffffffffffffffffffffffffff1673ffffffffffffffffffffffffffffffffffffffff168273ffffffffffffffffffffffffffffffffffffffff16146105f1576040517f08c379a00000000000000000000000000000000000000000000000000000000081526004016105e89061171b565b60405180910390fd5b60008190806001815401808255809150506001900390600052602060002001600090919091909150908051906020019061062c929190611215565b505050565b6060600360009054906101000a900473ffffffffffffffffffffffffffffffffffffffff1673ffffffffffffffffffffffffffffffffffffffff163373ffffffffffffffffffffffffffffffffffffffff1614806106dc5750600460009054906101000a900473ffffffffffffffffffffffffffffffffffffffff1673ffffffffffffffffffffffffffffffffffffffff163373ffffffffffffffffffffffffffffffffffffffff16145b61071b576040517f08c379a0000000000000000000000000000000000000000000000000000000008152600401610712906116bb565b60405180910390fd5b600360009054906101000a900473ffffffffffffffffffffffffffffffffffffffff1673ffffffffffffffffffffffffffffffffffffffff163373ffffffffffffffffffffffffffffffffffffffff1614806107c45750600460009054906101000a900473ffffffffffffffffffffffffffffffffffffffff1673ffffffffffffffffffffffffffffffffffffffff163373ffffffffffffffffffffffffffffffffffffffff16145b610803576040517f08c379a00000000000000000000000000000000000000000000000000000000081526004016107fa906116fb565b60405180910390fd5b600080549050821061084a576040517f08c379a0000000000000000000000000000000000000000000000000000000008152600401610841906116db565b60405180910390fd5b60008281548110610884577f4e487b7100000000000000000000000000000000000000000000000000000000600052603260045260246000fd5b90600052602060002001805461089990611871565b80601f01602080910402602001604051908101604052809291908181526020018280546108c590611871565b80156109125780601f106108e757610100808354040283529160200191610912565b820191906000526020600020905b8154815290600101906020018083116108f557829003601f168201915b50505050509050919050565b60608060008060056002600360009054906101000a900473ffffffffffffffffffffffffffffffffffffffff16600460009054906101000a900473ffffffffffffffffffffffffffffffffffffffff1683805461097a90611871565b80601f01602080910402602001604051908101604052809291908181526020018280546109a690611871565b80156109f35780601f106109c8576101008083540402835291602001916109f3565b820191906000526020600020905b8154815290600101906020018083116109d657829003601f168201915b50505050509350828054610a0690611871565b80601f0160208091040260200160405190810160405280929190818152602001828054610a3290611871565b8015610a7f5780601f10610a5457610100808354040283529160200191610a7f565b820191906000526020600020905b815481529060010190602001808311610a6257829003601f168201915b50505050509250935093509350935090919293565b6000600360009054906101000a900473ffffffffffffffffffffffffffffffffffffffff1673ffffffffffffffffffffffffffffffffffffffff163373ffffffffffffffffffffffffffffffffffffffff161480610b3f5750600460009054906101000a900473ffffffffffffffffffffffffffffffffffffffff1673ffffffffffffffffffffffffffffffffffffffff163373ffffffffffffffffffffffffffffffffffffffff16145b610b7e576040517f08c379a0000000000000000000000000000000000000000000000000000000008152600401610b75906116bb565b60405180910390fd5b600360009054906101000a900473ffffffffffffffffffffffffffffffffffffffff1673ffffffffffffffffffffffffffffffffffffffff163373ffffffffffffffffffffffffffffffffffffffff161480610c275750600460009054906101000a900473ffffffffffffffffffffffffffffffffffffffff1673ffffffffffffffffffffffffffffffffffffffff163373ffffffffffffffffffffffffffffffffffffffff16145b610c66576040517f08c379a0000000000000000000000000000000000000000000000000000000008152600401610c5d906116fb565b60405180910390fd5b600080549050905090565b6000600360009054906101000a900473ffffffffffffffffffffffffffffffffffffffff1673ffffffffffffffffffffffffffffffffffffffff163373ffffffffffffffffffffffffffffffffffffffff161480610d1c5750600460009054906101000a900473ffffffffffffffffffffffffffffffffffffffff1673ffffffffffffffffffffffffffffffffffffffff163373ffffffffffffffffffffffffffffffffffffffff16145b610d5b576040517f08c379a0000000000000000000000000000000000000000000000000000000008152600401610d52906116bb565b60405180910390fd5b600360009054906101000a900473ffffffffffffffffffffffffffffffffffffffff1673ffffffffffffffffffffffffffffffffffffffff163373ffffffffffffffffffffffffffffffffffffffff161480610e045750600460009054906101000a900473ffffffffffffffffffffffffffffffffffffffff1673ffffffffffffffffffffffffffffffffffffffff163373ffffffffffffffffffffffffffffffffffffffff16145b610e43576040517f08c379a0000000000000000000000000000000000000000000000000000000008152600401610e3a906116fb565b60405180910390fd5b600180549050905090565b6060806060806060600360009054906101000a900473ffffffffffffffffffffffffffffffffffffffff1673ffffffffffffffffffffffffffffffffffffffff163373ffffffffffffffffffffffffffffffffffffffff161480610eff5750600460009054906101000a900473ffffffffffffffffffffffffffffffffffffffff1673ffffffffffffffffffffffffffffffffffffffff163373ffffffffffffffffffffffffffffffffffffffff16145b610f3e576040517f08c379a0000000000000000000000000000000000000000000000000000000008152600401610f35906116fb565b60405180910390fd5b60056006600860096007848054610f5490611871565b80601f0160208091040260200160405190810160405280929190818152602001828054610f8090611871565b8015610fcd5780601f10610fa257610100808354040283529160200191610fcd565b820191906000526020600020905b815481529060010190602001808311610fb057829003601f168201915b50505050509450838054610fe090611871565b80601f016020809104026020016040519081016040528092919081815260200182805461100c90611871565b80156110595780601f1061102e57610100808354040283529160200191611059565b820191906000526020600020905b81548152906001019060200180831161103c57829003601f168201915b5050505050935082805461106c90611871565b80601f016020809104026020016040519081016040528092919081815260200182805461109890611871565b80156110e55780601f106110ba576101008083540402835291602001916110e5565b820191906000526020600020905b8154815290600101906020018083116110c857829003601f168201915b505050505092508180546110f890611871565b80601f016020809104026020016040519081016040528092919081815260200182805461112490611871565b80156111715780601f1061114657610100808354040283529160200191611171565b820191906000526020600020905b81548152906001019060200180831161115457829003601f168201915b5050505050915080805461118490611871565b80601f01602080910402602001604051908101604052809291908181526020018280546111b090611871565b80156111fd5780601f106111d2576101008083540402835291602001916111fd565b820191906000526020600020905b8154815290600101906020018083116111e057829003601f168201915b50505050509050945094509450945094509091929394565b82805461122190611871565b90600052602060002090601f016020900481019282611243576000855561128a565b82601f1061125c57805160ff191683800117855561128a565b8280016001018555821561128a579182015b8281111561128957825182559160200191906001019061126e565b5b509050611297919061129b565b5090565b5b808211156112b457600081600090555060010161129c565b5090565b60006112cb6112c6846117a7565b611776565b9050828152602081018484840111156112e357600080fd5b6112ee84828561182f565b509392505050565b60008135905061130581611912565b92915050565b600082601f83011261131c57600080fd5b813561132c8482602086016112b8565b91505092915050565b60008135905061134481611929565b92915050565b6000806040838503121561135d57600080fd5b600061136b858286016112f6565b925050602083013567ffffffffffffffff81111561138857600080fd5b6113948582860161130b565b9150509250929050565b6000602082840312156113b057600080fd5b60006113be84828501611335565b91505092915050565b6113d0816117f3565b82525050565b60006113e1826117d7565b6113eb81856117e2565b93506113fb81856020860161183e565b61140481611901565b840191505092915050565b600061141c600c836117e2565b91507f556e617574686f72697a656400000000000000000000000000000000000000006000830152602082019050919050565b600061145c600d836117e2565b91507f496e76616c696420696e646578000000000000000000000000000000000000006000830152602082019050919050565b600061149c6024836117e2565b91507f5265737472696374656420746f206d616e61676572206f7220646f63746f722060008301527f6f6e6c79000000000000000000000000000000000000000000000000000000006020830152604082019050919050565b6000611502602b836117e2565b91507f4f6e6c792074686520646f63746f722063616e2061646420612070726573637260008301527f697074696f6e20686173680000000000000000000000000000000000000000006020830152604082019050919050565b60006115686025836117e2565b91507f4f6e6c792074686520646f63746f722063616e206164642061207265706f727460008301527f20686173680000000000000000000000000000000000000000000000000000006020830152604082019050919050565b6115ca81611825565b82525050565b600060208201905081810360008301526115ea81846113d6565b905092915050565b6000608082019050818103600083015261160c81876113d6565b9050818103602083015261162081866113d6565b905061162f60408301856113c7565b61163c60608301846113c7565b95945050505050565b600060a082019050818103600083015261165f81886113d6565b9050818103602083015261167381876113d6565b9050818103604083015261168781866113d6565b9050818103606083015261169b81856113d6565b905081810360808301526116af81846113d6565b90509695505050505050565b600060208201905081810360008301526116d48161140f565b9050919050565b600060208201905081810360008301526116f48161144f565b9050919050565b600060208201905081810360008301526117148161148f565b9050919050565b60006020820190508181036000830152611734816114f5565b9050919050565b600060208201905081810360008301526117548161155b565b9050919050565b600060208201905061177060008301846115c1565b92915050565b6000604051905081810181811067ffffffffffffffff8211171561179d5761179c6118d2565b5b8060405250919050565b600067ffffffffffffffff8211156117c2576117c16118d2565b5b601f19601f8301169050602081019050919050565b600081519050919050565b600082825260208201905092915050565b60006117fe82611805565b9050919050565b600073ffffffffffffffffffffffffffffffffffffffff82169050919050565b6000819050919050565b82818337600083830152505050565b60005b8381101561185c578082015181840152602081019050611841565b8381111561186b576000848401525b50505050565b6000600282049050600182168061188957607f821691505b6020821081141561189d5761189c6118a3565b5b50919050565b7f4e487b7100000000000000000000000000000000000000000000000000000000600052602260045260246000fd5b7f4e487b7100000000000000000000000000000000000000000000000000000000600052604160045260246000fd5b6000601f19601f8301169050919050565b61191b816117f3565b811461192657600080fd5b50565b61193281611825565b811461193d57600080fd5b5056fea26469706673582212209645d1851df1ebc5c9df34956650a34702b8f32cb41e59da01c8bc7bb02f503964736f6c63430008000033",
  "linkReferences": {},
  "deployedLinkReferences": {}
}