{
  "_format": "hh-sol-artifact-1",
  "contractName": "RecordFactory",
  "sourceName": "contracts/healthrecord.sol",
  "abi": [
    {
      "inputs": [],
      "stateMutability": "nonpayable",
      "type": "constructor"
    },
    {
      "inputs": [
        {
          "internalType": "string",
          "name": "name",
          "type": "string"
        },
        {
          "internalType": "string",
          "name": "age",
          "type": "string"
        },
        {
          "internalType": "string",
          "name": "gender",
          "type": "string"
        },
        {
          "internalType": "string",
          "name": "height",
          "type": "string"
        },
        {
          "internalType": "string",
          "name": "weight",
          "type": "string"
        },
        {
          "internalType": "address",
          "name": "doctorAddress",
          "type": "address"
        },
        {
          "internalType": "string",
          "name": "prescriptionHash",
          "type": "string"
        },
        {
          "internalType": "string",
          "name": "mriHash",
          "type": "string"
        },
        {
          "internalType": "string",
          "name": "imageHash",
          "type": "string"
        }
      ],
      "name": "createRecord",
      "outputs": [],
      "stateMutability": "nonpayable",
      "type": "function"
    },
    {
      "inputs": [
        {
          "internalType": "uint256",
          "name": "",
          "type": "uint256"
        }
      ],
      "name": "deployedrecords",
      "outputs": [
        {
          "internalType": "address",
          "name": "",
          "type": "address"
        }
      ],
      "stateMutability": "view",
      "type": "function"
    },
    {
      "inputs": [
        {
          "internalType": "address",
          "name": "",
          "type": "address"
        }
      ],
      "name": "docs",
      "outputs": [
        {
          "internalType": "address",
          "name": "doc",
          "type": "address"
        },
        {
          "internalType": "string",
          "name": "imageHash",
          "type": "string"
        },
        {
          "internalType": "string",
          "name": "speciality",
          "type": "string"
        },
        {
          "internalType": "string",
          "name": "description",
          "type": "string"
        }
      ],
      "stateMutability": "view",
      "type": "function"
    },
    {
      "inputs": [
        {
          "internalType": "uint256",
          "name": "",
          "type": "uint256"
        }
      ],
      "name": "doctors",
      "outputs": [
        {
          "internalType": "address",
          "name": "",
          "type": "address"
        }
      ],
      "stateMutability": "view",
      "type": "function"
    },
    {
      "inputs": [],
      "name": "getDeployedRecords",
      "outputs": [
        {
          "internalType": "address[]",
          "name": "",
          "type": "address[]"
        }
      ],
      "stateMutability": "view",
      "type": "function"
    },
    {
      "inputs": [],
      "name": "getDoctors",
      "outputs": [
        {
          "internalType": "address[]",
          "name": "",
          "type": "address[]"
        }
      ],
      "stateMutability": "view",
      "type": "function"
    },
    {
      "inputs": [],
      "name": "manager",
      "outputs": [
        {
          "internalType": "address",
          "name": "",
          "type": "address"
        }
      ],
      "stateMutability": "view",
      "type": "function"
    },
    {
      "inputs": [
        {
          "internalType": "address",
          "name": "",
          "type": "address"
        }
      ],
      "name": "records",
      "outputs": [
        {
          "internalType": "bool",
          "name": "",
          "type": "bool"
        }
      ],
      "stateMutability": "view",
      "type": "function"
    },
    {
      "inputs": [
        {
          "internalType": "address",
          "name": "sender",
          "type": "address"
        },
        {
          "internalType": "string",
          "name": "_imageHash",
          "type": "string"
        },
        {
          "internalType": "string",
          "name": "_speciality",
          "type": "string"
        },
        {
          "internalType": "string",
          "name": "_description",
          "type": "string"
        }
      ],
      "name": "registerDoctor",
      "outputs": [],
      "stateMutability": "nonpayable",
      "type": "function"
    }
  ],
  "bytecode": "0x608060405234801561001057600080fd5b5033600260006101000a81548173ffffffffffffffffffffffffffffffffffffffff021916908373ffffffffffffffffffffffffffffffffffffffff1602179055506133b2806100616000396000f3fe60806040523480156200001157600080fd5b5060043610620000a05760003560e01c806393c095ff116200006f57806393c095ff1462000155578063b13d5d941462000175578063bc664c951462000197578063d552d2dd14620001cd578063eb4d2ec114620001ed57620000a0565b8063469e906714620000a5578063481c6a7514620000db5780634c58729414620000fd5780636efb1b84146200011f575b600080fd5b620000c36004803603810190620000bd919062000c22565b62000226565b604051620000d2919062001203565b60405180910390f35b620000e562000246565b604051620000f4919062001074565b60405180910390f35b620001076200026c565b604051620001169190620011df565b60405180910390f35b6200013d600480360381019062000137919062000ea6565b620002fc565b6040516200014c919062001074565b60405180910390f35b6200017360048036038101906200016d919062000c4e565b6200033c565b005b6200017f6200055b565b6040516200018e9190620011df565b60405180910390f35b620001b56004803603810190620001af919062000ea6565b620005eb565b604051620001c4919062001074565b60405180910390f35b620001eb6004803603810190620001e5919062000d05565b6200062b565b005b6200020b600480360381019062000205919062000c22565b620008c4565b6040516200021d9493929190620010c5565b60405180910390f35b60016020528060005260406000206000915054906101000a900460ff1681565b600260009054906101000a900473ffffffffffffffffffffffffffffffffffffffff1681565b60606000805480602002602001604051908101604052809291908181526020018280548015620002f257602002820191906000526020600020905b8160009054906101000a900473ffffffffffffffffffffffffffffffffffffffff1673ffffffffffffffffffffffffffffffffffffffff1681526020019060010190808311620002a7575b5050505050905090565b600481815481106200030d57600080fd5b906000526020600020016000915054906101000a900473ffffffffffffffffffffffffffffffffffffffff1681565b600260009054906101000a900473ffffffffffffffffffffffffffffffffffffffff1673ffffffffffffffffffffffffffffffffffffffff163373ffffffffffffffffffffffffffffffffffffffff1614620003cf576040517f08c379a0000000000000000000000000000000000000000000000000000000008152600401620003c69062001220565b60405180910390fd5b600060405180608001604052808673ffffffffffffffffffffffffffffffffffffffff16815260200185815260200184815260200183815250905080600360008773ffffffffffffffffffffffffffffffffffffffff1673ffffffffffffffffffffffffffffffffffffffff16815260200190815260200160002060008201518160000160006101000a81548173ffffffffffffffffffffffffffffffffffffffff021916908373ffffffffffffffffffffffffffffffffffffffff1602179055506020820151816001019080519060200190620004af92919062000ac4565b506040820151816002019080519060200190620004ce92919062000ac4565b506060820151816003019080519060200190620004ed92919062000ac4565b509050506004859080600181540180825580915050600190039060005260206000200160009091909190916101000a81548173ffffffffffffffffffffffffffffffffffffffff021916908373ffffffffffffffffffffffffffffffffffffffff1602179055505050505050565b60606004805480602002602001604051908101604052809291908181526020018280548015620005e157602002820191906000526020600020905b8160009054906101000a900473ffffffffffffffffffffffffffffffffffffffff1673ffffffffffffffffffffffffffffffffffffffff168152602001906001019080831162000596575b5050505050905090565b60008181548110620005fc57600080fd5b906000526020600020016000915054906101000a900473ffffffffffffffffffffffffffffffffffffffff1681565b600160003373ffffffffffffffffffffffffffffffffffffffff1673ffffffffffffffffffffffffffffffffffffffff16815260200190815260200160002060009054906101000a900460ff1615620006bb576040517f08c379a0000000000000000000000000000000000000000000000000000000008152600401620006b29062001242565b60405180910390fd5b6000338a8a8a8a8a8a88604051620006d39062000b55565b620006e698979695949392919062001127565b604051809103906000f08015801562000703573d6000803e3d6000fd5b50905060018060003373ffffffffffffffffffffffffffffffffffffffff1673ffffffffffffffffffffffffffffffffffffffff16815260200190815260200160002060006101000a81548160ff0219169083151502179055506000819080600181540180825580915050600190039060005260206000200160009091909190916101000a81548173ffffffffffffffffffffffffffffffffffffffff021916908373ffffffffffffffffffffffffffffffffffffffff16021790555060008351146200083c578073ffffffffffffffffffffffffffffffffffffffff166332ddb7cc86856040518363ffffffff1660e01b81526004016200080792919062001091565b600060405180830381600087803b1580156200082257600080fd5b505af115801562000837573d6000803e3d6000fd5b505050505b6000845114620008b8578073ffffffffffffffffffffffffffffffffffffffff166353a1c84786866040518363ffffffff1660e01b81526004016200088392919062001091565b600060405180830381600087803b1580156200089e57600080fd5b505af1158015620008b3573d6000803e3d6000fd5b505050505b50505050505050505050565b60036020528060005260406000206000915090508060000160009054906101000a900473ffffffffffffffffffffffffffffffffffffffff16908060010180546200090f90620013af565b80601f01602080910402602001604051908101604052809291908181526020018280546200093d90620013af565b80156200098e5780601f1062000962576101008083540402835291602001916200098e565b820191906000526020600020905b8154815290600101906020018083116200097057829003601f168201915b505050505090806002018054620009a590620013af565b80601f0160208091040260200160405190810160405280929190818152602001828054620009d390620013af565b801562000a245780601f10620009f85761010080835404028352916020019162000a24565b820191906000526020600020905b81548152906001019060200180831162000a0657829003601f168201915b50505050509080600301805462000a3b90620013af565b80601f016020809104026020016040519081016040528092919081815260200182805462000a6990620013af565b801562000aba5780601f1062000a8e5761010080835404028352916020019162000aba565b820191906000526020600020905b81548152906001019060200180831162000a9c57829003601f168201915b5050505050905084565b82805462000ad290620013af565b90600052602060002090601f01602090048101928262000af6576000855562000b42565b82601f1062000b1157805160ff191683800117855562000b42565b8280016001018555821562000b42579182015b8281111562000b4157825182559160200191906001019062000b24565b5b50905062000b51919062000b63565b5090565b611ef4806200148983390190565b5b8082111562000b7e57600081600090555060010162000b64565b5090565b600062000b9962000b938462001298565b62001264565b90508281526020810184848401111562000bb257600080fd5b62000bbf8482856200136a565b509392505050565b60008135905062000bd88162001454565b92915050565b600082601f83011262000bf057600080fd5b813562000c0284826020860162000b82565b91505092915050565b60008135905062000c1c816200146e565b92915050565b60006020828403121562000c3557600080fd5b600062000c458482850162000bc7565b91505092915050565b6000806000806080858703121562000c6557600080fd5b600062000c758782880162000bc7565b945050602085013567ffffffffffffffff81111562000c9357600080fd5b62000ca18782880162000bde565b935050604085013567ffffffffffffffff81111562000cbf57600080fd5b62000ccd8782880162000bde565b925050606085013567ffffffffffffffff81111562000ceb57600080fd5b62000cf98782880162000bde565b91505092959194509250565b60008060008060008060008060006101208a8c03121562000d2557600080fd5b60008a013567ffffffffffffffff81111562000d4057600080fd5b62000d4e8c828d0162000bde565b99505060208a013567ffffffffffffffff81111562000d6c57600080fd5b62000d7a8c828d0162000bde565b98505060408a013567ffffffffffffffff81111562000d9857600080fd5b62000da68c828d0162000bde565b97505060608a013567ffffffffffffffff81111562000dc457600080fd5b62000dd28c828d0162000bde565b96505060808a013567ffffffffffffffff81111562000df057600080fd5b62000dfe8c828d0162000bde565b95505060a062000e118c828d0162000bc7565b94505060c08a013567ffffffffffffffff81111562000e2f57600080fd5b62000e3d8c828d0162000bde565b93505060e08a013567ffffffffffffffff81111562000e5b57600080fd5b62000e698c828d0162000bde565b9250506101008a013567ffffffffffffffff81111562000e8857600080fd5b62000e968c828d0162000bde565b9150509295985092959850929598565b60006020828403121562000eb957600080fd5b600062000ec98482850162000c0b565b91505092915050565b600062000ee0838362000eec565b60208301905092915050565b62000ef78162001320565b82525050565b62000f088162001320565b82525050565b600062000f1b82620012db565b62000f278185620012fe565b935062000f3483620012cb565b8060005b8381101562000f6b57815162000f4f888262000ed2565b975062000f5c83620012f1565b92505060018101905062000f38565b5085935050505092915050565b62000f838162001334565b82525050565b600062000f9682620012e6565b62000fa281856200130f565b935062000fb481856020860162001379565b62000fbf8162001443565b840191505092915050565b600062000fd96022836200130f565b91507f4f6e6c79206d616e616765722063616e207265676973746572206120646f637460008301527f6f720000000000000000000000000000000000000000000000000000000000006020830152604082019050919050565b6000620010416015836200130f565b91507f5265636f726420616c72656164792065786973747300000000000000000000006000830152602082019050919050565b60006020820190506200108b600083018462000efd565b92915050565b6000604082019050620010a8600083018562000efd565b8181036020830152620010bc818462000f89565b90509392505050565b6000608082019050620010dc600083018762000efd565b8181036020830152620010f0818662000f89565b9050818103604083015262001106818562000f89565b905081810360608301526200111c818462000f89565b905095945050505050565b6000610100820190506200113f600083018b62000efd565b818103602083015262001153818a62000f89565b9050818103604083015262001169818962000f89565b905081810360608301526200117f818862000f89565b9050818103608083015262001195818762000f89565b905081810360a0830152620011ab818662000f89565b9050620011bc60c083018562000efd565b81810360e0830152620011d0818462000f89565b90509998505050505050505050565b60006020820190508181036000830152620011fb818462000f0e565b905092915050565b60006020820190506200121a600083018462000f78565b92915050565b600060208201905081810360008301526200123b8162000fca565b9050919050565b600060208201905081810360008301526200125d8162001032565b9050919050565b6000604051905081810181811067ffffffffffffffff821117156200128e576200128d62001414565b5b8060405250919050565b600067ffffffffffffffff821115620012b657620012b562001414565b5b601f19601f8301169050602081019050919050565b6000819050602082019050919050565b600081519050919050565b600081519050919050565b6000602082019050919050565b600082825260208201905092915050565b600082825260208201905092915050565b60006200132d8262001340565b9050919050565b60008115159050919050565b600073ffffffffffffffffffffffffffffffffffffffff82169050919050565b6000819050919050565b82818337600083830152505050565b60005b83811015620013995780820151818401526020810190506200137c565b83811115620013a9576000848401525b50505050565b60006002820490506001821680620013c857607f821691505b60208210811415620013df57620013de620013e5565b5b50919050565b7f4e487b7100000000000000000000000000000000000000000000000000000000600052602260045260246000fd5b7f4e487b7100000000000000000000000000000000000000000000000000000000600052604160045260246000fd5b6000601f19601f8301169050919050565b6200145f8162001320565b81146200146b57600080fd5b50565b620014798162001360565b81146200148557600080fd5b5056fe60806040523480156200001157600080fd5b5060405162001ef438038062001ef4833981810160405281019062000037919062000296565b87600360006101000a81548173ffffffffffffffffffffffffffffffffffffffff021916908373ffffffffffffffffffffffffffffffffffffffff1602179055508660059080519060200190620000909291906200015d565b508560069080519060200190620000a99291906200015d565b508460079080519060200190620000c29291906200015d565b508360089080519060200190620000db9291906200015d565b508260099080519060200190620000f49291906200015d565b5081600460006101000a81548173ffffffffffffffffffffffffffffffffffffffff021916908373ffffffffffffffffffffffffffffffffffffffff16021790555080600290805190602001906200014e9291906200015d565b5050505050505050506200056e565b8280546200016b90620004c0565b90600052602060002090601f0160209004810192826200018f5760008555620001db565b82601f10620001aa57805160ff1916838001178555620001db565b82800160010185558215620001db579182015b82811115620001da578251825591602001919060010190620001bd565b5b509050620001ea9190620001ee565b5090565b5b8082111562000209576000816000905550600101620001ef565b5090565b6000620002246200021e8462000423565b620003ef565b9050828152602081018484840111156200023d57600080fd5b6200024a8482856200048a565b509392505050565b600081519050620002638162000554565b92915050565b600082601f8301126200027b57600080fd5b81516200028d8482602086016200020d565b91505092915050565b600080600080600080600080610100898b031215620002b457600080fd5b6000620002c48b828c0162000252565b985050602089015167ffffffffffffffff811115620002e257600080fd5b620002f08b828c0162000269565b975050604089015167ffffffffffffffff8111156200030e57600080fd5b6200031c8b828c0162000269565b965050606089015167ffffffffffffffff8111156200033a57600080fd5b620003488b828c0162000269565b955050608089015167ffffffffffffffff8111156200036657600080fd5b620003748b828c0162000269565b94505060a089015167ffffffffffffffff8111156200039257600080fd5b620003a08b828c0162000269565b93505060c0620003b38b828c0162000252565b92505060e089015167ffffffffffffffff811115620003d157600080fd5b620003df8b828c0162000269565b9150509295985092959890939650565b6000604051905081810181811067ffffffffffffffff8211171562000419576200041862000525565b5b8060405250919050565b600067ffffffffffffffff82111562000441576200044062000525565b5b601f19601f8301169050602081019050919050565b600062000463826200046a565b9050919050565b600073ffffffffffffffffffffffffffffffffffffffff82169050919050565b60005b83811015620004aa5780820151818401526020810190506200048d565b83811115620004ba576000848401525b50505050565b60006002820490506001821680620004d957607f821691505b60208210811415620004f057620004ef620004f6565b5b50919050565b7f4e487b7100000000000000000000000000000000000000000000000000000000600052602260045260246000fd5b7f4e487b7100000000000000000000000000000000000000000000000000000000600052604160045260246000fd5b6200055f8162000456565b81146200056b57600080fd5b50565b611976806200057e6000396000f3fe608060405234801561001057600080fd5b50600436106100885760003560e01c8063a45c26fa1161005b578063a45c26fa14610125578063b8fbfe4114610146578063cdbbd15914610164578063fbbf93a01461018257610088565b806332ddb7cc1461008d5780634e7f9b19146100a957806353a1c847146100d95780636f16af10146100f5575b600080fd5b6100a760048036038101906100a2919061134a565b6101a4565b005b6100c360048036038101906100be919061139e565b610274565b6040516100d091906115d0565b60405180910390f35b6100f360048036038101906100ee919061134a565b610561565b005b61010f600480360381019061010a919061139e565b610631565b60405161011c91906115d0565b60405180910390f35b61012d61091e565b60405161013d94939291906115f2565b60405180910390f35b61014e610a94565b60405161015b919061175b565b60405180910390f35b61016c610c71565b604051610179919061175b565b60405180910390f35b61018a610e4e565b60405161019b959493929190611645565b60405180910390f35b600460009054906101000a900473ffffffffffffffffffffffffffffffffffffffff1673ffffffffffffffffffffffffffffffffffffffff168273ffffffffffffffffffffffffffffffffffffffff1614610234576040517f08c379a000000000000000000000000000000000000000000000000000000000815260040161022b9061173b565b60405180910390fd5b60018190806001815401808255809150506001900390600052602060002001600090919091909150908051906020019061026f929190611215565b505050565b6060600360009054906101000a900473ffffffffffffffffffffffffffffffffffffffff1673ffffffffffffffffffffffffffffffffffffffff163373ffffffffffffffffffffffffffffffffffffffff16148061031f5750600460009054906101000a900473ffffffffffffffffffffffffffffffffffffffff1673ffffffffffffffffffffffffffffffffffffffff163373ffffffffffffffffffffffffffffffffffffffff16145b61035e576040517f08c379a0000000000000000000000000000000000000000000000000000000008152600401610355906116bb565b60405180910390fd5b600360009054906101000a900473ffffffffffffffffffffffffffffffffffffffff1673ffffffffffffffffffffffffffffffffffffffff163373ffffffffffffffffffffffffffffffffffffffff1614806104075750600460009054906101000a900473ffffffffffffffffffffffffffffffffffffffff1673ffffffffffffffffffffffffffffffffffffffff163373ffffffffffffffffffffffffffffffffffffffff16145b610446576040517f08c379a000000000000000000000000000000000000000000000000000000000815260040161043d906116fb565b60405180910390fd5b600180549050821061048d576040517f08c379a0000000000000000000000000000000000000000000000000000000008152600401610484906116db565b60405180910390fd5b600182815481106104c7577f4e487b7100000000000000000000000000000000000000000000000000000000600052603260045260246000fd5b9060005260206000200180546104dc90611871565b80601f016020809104026020016040519081016040528092919081815260200182805461050890611871565b80156105555780601f1061052a57610100808354040283529160200191610555565b820191906000526020600020905b81548152906001019060200180831161053857829003601f168201915b50505050509050919050565b600460009054906101000a900473ffffffffffffffffffffffffffffffffffffffff1673ffffffffffffffffffffffffffffffffffffffff168273ffffffffffffffffffffffffffffffffffffffff16146105f1576040517f08c379a00000000000000000000000000000000000000000000000000000000081526004016105e89061171b565b60405180910390fd5b60008190806001815401808255809150506001900390600052602060002001600090919091909150908051906020019061062c929190611215565b505050565b6060600360009054906101000a900473ffffffffffffffffffffffffffffffffffffffff1673ffffffffffffffffffffffffffffffffffffffff163373ffffffffffffffffffffffffffffffffffffffff1614806106dc5750600460009054906101000a900473ffffffffffffffffffffffffffffffffffffffff1673ffffffffffffffffffffffffffffffffffffffff163373ffffffffffffffffffffffffffffffffffffffff16145b61071b576040517f08c379a0000000000000000000000000000000000000000000000000000000008152600401610712906116bb565b60405180910390fd5b600360009054906101000a900473ffffffffffffffffffffffffffffffffffffffff1673ffffffffffffffffffffffffffffffffffffffff163373ffffffffffffffffffffffffffffffffffffffff1614806107c45750600460009054906101000a900473ffffffffffffffffffffffffffffffffffffffff1673ffffffffffffffffffffffffffffffffffffffff163373ffffffffffffffffffffffffffffffffffffffff16145b610803576040517f08c379a00000000000000000000000000000000000000000000000000000000081526004016107fa906116fb565b60405180910390fd5b600080549050821061084a576040517f08c379a0000000000000000000000000000000000000000000000000000000008152600401610841906116db565b60405180910390fd5b60008281548110610884577f4e487b7100000000000000000000000000000000000000000000000000000000600052603260045260246000fd5b90600052602060002001805461089990611871565b80601f01602080910402602001604051908101604052809291908181526020018280546108c590611871565b80156109125780601f106108e757610100808354040283529160200191610912565b820191906000526020600020905b8154815290600101906020018083116108f557829003601f168201915b50505050509050919050565b60608060008060056002600360009054906101000a900473ffffffffffffffffffffffffffffffffffffffff16600460009054906101000a900473ffffffffffffffffffffffffffffffffffffffff1683805461097a90611871565b80601f01602080910402602001604051908101604052809291908181526020018280546109a690611871565b80156109f35780601f106109c8576101008083540402835291602001916109f3565b820191906000526020600020905b8154815290600101906020018083116109d657829003601f168201915b50505050509350828054610a0690611871565b80601f0160208091040260200160405190810160405280929190818152602001828054610a3290611871565b8015610a7f5780601f10610a5457610100808354040283529160200191610a7f565b820191906000526020600020905b815481529060010190602001808311610a6257829003601f168201915b50505050509250935093509350935090919293565b6000600360009054906101000a900473ffffffffffffffffffffffffffffffffffffffff1673ffffffffffffffffffffffffffffffffffffffff163373ffffffffffffffffffffffffffffffffffffffff161480610b3f5750600460009054906101000a900473ffffffffffffffffffffffffffffffffffffffff1673ffffffffffffffffffffffffffffffffffffffff163373ffffffffffffffffffffffffffffffffffffffff16145b610b7e576040517f08c379a0000000000000000000000000000000000000000000000000000000008152600401610b75906116bb565b60405180910390fd5b600360009054906101000a900473ffffffffffffffffffffffffffffffffffffffff1673ffffffffffffffffffffffffffffffffffffffff163373ffffffffffffffffffffffffffffffffffffffff161480610c275750600460009054906101000a900473ffffffffffffffffffffffffffffffffffffffff1673ffffffffffffffffffffffffffffffffffffffff163373ffffffffffffffffffffffffffffffffffffffff16145b610c66576040517f08c379a0000000000000000000000000000000000000000000000000000000008152600401610c5d906116fb565b60405180910390fd5b600080549050905090565b6000600360009054906101000a900473ffffffffffffffffffffffffffffffffffffffff1673ffffffffffffffffffffffffffffffffffffffff163373ffffffffffffffffffffffffffffffffffffffff161480610d1c5750600460009054906101000a900473ffffffffffffffffffffffffffffffffffffffff1673ffffffffffffffffffffffffffffffffffffffff163373ffffffffffffffffffffffffffffffffffffffff16145b610d5b576040517f08c379a0000000000000000000000000000000000000000000000000000000008152600401610d52906116bb565b60405180910390fd5b600360009054906101000a900473ffffffffffffffffffffffffffffffffffffffff1673ffffffffffffffffffffffffffffffffffffffff163373ffffffffffffffffffffffffffffffffffffffff161480610e045750600460009054906101000a900473ffffffffffffffffffffffffffffffffffffffff1673ffffffffffffffffffffffffffffffffffffffff163373ffffffffffffffffffffffffffffffffffffffff16145b610e43576040517f08c379a0000000000000000000000000000000000000000000000000000000008152600401610e3a906116fb565b60405180910390fd5b600180549050905090565b6060806060806060600360009054906101000a900473ffffffffffffffffffffffffffffffffffffffff1673ffffffffffffffffffffffffffffffffffffffff163373ffffffffffffffffffffffffffffffffffffffff161480610eff5750600460009054906101000a900473ffffffffffffffffffffffffffffffffffffffff1673ffffffffffffffffffffffffffffffffffffffff163373ffffffffffffffffffffffffffffffffffffffff16145b610f3e576040517f08c379a0000000000000000000000000000000000000000000000000000000008152600401610f35906116fb565b60405180910390fd5b60056006600860096007848054610f5490611871565b80601f0160208091040260200160405190810160405280929190818152602001828054610f8090611871565b8015610fcd5780601f10610fa257610100808354040283529160200191610fcd565b820191906000526020600020905b815481529060010190602001808311610fb057829003601f168201915b50505050509450838054610fe090611871565b80601f016020809104026020016040519081016040528092919081815260200182805461100c90611871565b80156110595780601f1061102e57610100808354040283529160200191611059565b820191906000526020600020905b81548152906001019060200180831161103c57829003601f168201915b5050505050935082805461106c90611871565b80601f016020809104026020016040519081016040528092919081815260200182805461109890611871565b80156110e55780601f106110ba576101008083540402835291602001916110e5565b820191906000526020600020905b8154815290600101906020018083116110c857829003601f168201915b505050505092508180546110f890611871565b80601f016020809104026020016040519081016040528092919081815260200182805461112490611871565b80156111715780601f1061114657610100808354040283529160200191611171565b820191906000526020600020905b81548152906001019060200180831161115457829003601f168201915b5050505050915080805461118490611871565b80601f01602080910402602001604051908101604052809291908181526020018280546111b090611871565b80156111fd5780601f106111d2576101008083540402835291602001916111fd565b820191906000526020600020905b8154815290600101906020018083116111e057829003601f168201915b50505050509050945094509450945094509091929394565b82805461122190611871565b90600052602060002090601f016020900481019282611243576000855561128a565b82601f1061125c57805160ff191683800117855561128a565b8280016001018555821561128a579182015b8281111561128957825182559160200191906001019061126e565b5b509050611297919061129b565b5090565b5b808211156112b457600081600090555060010161129c565b5090565b60006112cb6112c6846117a7565b611776565b9050828152602081018484840111156112e357600080fd5b6112ee84828561182f565b509392505050565b60008135905061130581611912565b92915050565b600082601f83011261131c57600080fd5b813561132c8482602086016112b8565b91505092915050565b60008135905061134481611929565b92915050565b6000806040838503121561135d57600080fd5b600061136b858286016112f6565b925050602083013567ffffffffffffffff81111561138857600080fd5b6113948582860161130b565b9150509250929050565b6000602082840312156113b057600080fd5b60006113be84828501611335565b91505092915050565b6113d0816117f3565b82525050565b60006113e1826117d7565b6113eb81856117e2565b93506113fb81856020860161183e565b61140481611901565b840191505092915050565b600061141c600c836117e2565b91507f556e617574686f72697a656400000000000000000000000000000000000000006000830152602082019050919050565b600061145c600d836117e2565b91507f496e76616c696420696e646578000000000000000000000000000000000000006000830152602082019050919050565b600061149c6024836117e2565b91507f5265737472696374656420746f206d616e61676572206f7220646f63746f722060008301527f6f6e6c79000000000000000000000000000000000000000000000000000000006020830152604082019050919050565b6000611502602b836117e2565b91507f4f6e6c792074686520646f63746f722063616e2061646420612070726573637260008301527f697074696f6e20686173680000000000000000000000000000000000000000006020830152604082019050919050565b60006115686025836117e2565b91507f4f6e6c792074686520646f63746f722063616e206164642061207265706f727460008301527f20686173680000000000000000000000000000000000000000000000000000006020830152604082019050919050565b6115ca81611825565b82525050565b600060208201905081810360008301526115ea81846113d6565b905092915050565b6000608082019050818103600083015261160c81876113d6565b9050818103602083015261162081866113d6565b905061162f60408301856113c7565b61163c60608301846113c7565b95945050505050565b600060a082019050818103600083015261165f81886113d6565b9050818103602083015261167381876113d6565b9050818103604083015261168781866113d6565b9050818103606083015261169b81856113d6565b905081810360808301526116af81846113d6565b90509695505050505050565b600060208201905081810360008301526116d48161140f565b9050919050565b600060208201905081810360008301526116f48161144f565b9050919050565b600060208201905081810360008301526117148161148f565b9050919050565b60006020820190508181036000830152611734816114f5565b9050919050565b600060208201905081810360008301526117548161155b565b9050919050565b600060208201905061177060008301846115c1565b92915050565b6000604051905081810181811067ffffffffffffffff8211171561179d5761179c6118d2565b5b8060405250919050565b600067ffffffffffffffff8211156117c2576117c16118d2565b5b601f19601f8301169050602081019050919050565b600081519050919050565b600082825260208201905092915050565b60006117fe82611805565b9050919050565b600073ffffffffffffffffffffffffffffffffffffffff82169050919050565b6000819050919050565b82818337600083830152505050565b60005b8381101561185c578082015181840152602081019050611841565b8381111561186b576000848401525b50505050565b6000600282049050600182168061188957607f821691505b6020821081141561189d5761189c6118a3565b5b50919050565b7f4e487b7100000000000000000000000000000000000000000000000000000000600052602260045260246000fd5b7f4e487b7100000000000000000000000000000000000000000000000000000000600052604160045260246000fd5b6000601f19601f8301169050919050565b61191b816117f3565b811461192657600080fd5b50565b61193281611825565b811461193d57600080fd5b5056fea26469706673582212209645d1851df1ebc5c9df34956650a34702b8f32cb41e59da01c8bc7bb02f503964736f6c63430008000033a26469706673582212204954651683145107c78886b385b76f3168a30a22a4f1eecf2a08ec4785b6bbda64736f6c63430008000033",
  "linkReferences": {},
  "deployedLinkReferences": {}
}